:020000040000FA
:0400000020EF00F0FD
:100008000A82FACF02F0FBCF03F00E01BDAB0FEF6F
:1000180000F011EF00F01AEF00F0C5AB16EF00F09A
:1000280018EF00F01AEF00F05AEC00F003C0FBFFE5
:1000380002C0FAFF0A921100D5EF00F0000E866E9A
:10004800000E856E000E826E000E836E000E846EAA
:10005800060E8B6E8768886889688A680F0121692F
:100068001C691469070E296F0C69000E206F000EB9
:10007800286F000E136F000E0B6F000E1B6F000E23
:10008800276F000E0A6F000E126F000E1A6F000E17
:100098001F6F0969116919691E69070E266F0869BA
:1000A800106918691D690F0E256F12000E01C59B96
:1000B800075008100910D8B464EF00F066EF00F09C
:1000C80073EF00F002D873EF00F00500FA6E0750E6
:1000D800FD6E0850FE6E0950FF6EFA5012001200B5
:1000E800940ED56EC10ED36E000ED26E0E01C59B56
:1000F800BD8BB80E046E010E056E000E066ECEECBA
:1001080000F0800ED46E120086B08DEF00F090EFF4
:1001180000F0010E91EF00F0000EFF0A016E86500C
:100128000118FE0B0118866E1200C3EC00F0F28E67
:10013800F28C100E046E010E056E000E066ECEECEB
:1001480000F0A5EF00F020EF00F0000E0E01DC6FCC
:10015800000EDD6F000EDE6F000EDF6F000EE06F29
:10016800000EE16F1200600E0E01D36F000ED56F06
:10017800000ED76F000ED96F000ED86F1200DAECA0
:1001880000F0A9EC00F022EC00F0B7EC00F074EC01
:1001980000F0120004C007F005C008F006C009F01E
:1001A80012000A900A92000199EF00F0F29A1200E8
:0201B800120033
:020000040020DA
:10000000FFFFFFFFFFFFFFFFFFFFFFFFFFFFFFFF00
:10001000FFFFFFFFFFFFFFFFFFFFFFFFFFFFFFFFF0
:10002000FFFFFFFFFFFFFFFFFFFFFFFFFFFFFFFFE0
:10003000FFFFFFFFFFFFFFFFFFFFFFFFFFFFFFFFD0
:10004000FFFFFFFFFFFFFFFFFFFFFFFFFFFFFFFFC0
:10005000FFFFFFFFFFFFFFFFFFFFFFFFFFFFFFFFB0
:10006000FFFFFFFFFFFFFFFFFFFFFFFFFFFFFFFFA0
:10007000FFFFFFFFFFFFFFFFFFFFFFFFFFFFFFFF90
:10008000FFFFFFFFFFFFFFFFFFFFFFFFFFFFFFFF80
:10009000FFFFFFFFFFFFFFFFFFFFFFFFFFFFFFFF70
:1000A000FFFFFFFFFFFFFFFFFFFFFFFFFFFFFFFF60
:1000B000FFFFFFFFFFFFFFFFFFFFFFFFFFFFFFFF50
:1000C000FFFFFFFFFFFFFFFFFFFFFFFFFFFFFFFF40
:1000D000FFFFFFFFFFFFFFFFFFFFFFFFFFFFFFFF30
:1000E000FFFFFFFFFFFFFFFFFFFFFFFFFFFFFFFF20
:1000F000FFFFFFFFFFFFFFFFFFFFFFFFFFFFFFFF10
:020000040030CA
:0C000000ECFFFFFF9FFFFFFFFFFFFFFF73
:00000001FF
